:100000000C94C7000C94EF000C94EF000C94EF00DC
:100010000C94EF000C94EF000C94EF000C94EF00A4
:100020000C94EF000C94EF000C949F060C940E07B8
:100030000C94EF000C94EF000C94EF000C94EF0084
:100040000C94EF000C94EF000C94EF000C94EF0074
:100050000C94EF000C94EF000C94EF000C945506F8
:100060000C94EF000C94EF000C94EF000C94EF0054
:100070000C94EF000C94EF000C94EF000C94EF0044
:100080000C94EF000C94EF000C94EF000C94EF0034
:100090000C9440090C94EF000C94EF000C94EF00CA
:1000A0000C94EF000C94EF000C94EF00080B00028E
:1000B0000202000009040000010202000005240001
:1000C0001001052401010104240206052406000193
:1000D0000705810310004009040100020A00000026
:1000E00007050202400000070583024000000403E8
:1000F000090412010002EF02014041233680000191
:100100000102030141726475696E6F204C4C43001B
:1001100041726475696E6F204C656F6E6172646FB9
:100120000000000000250028002B002E00310004F4
:10013000040404040304050202020204030202028E
:100140000206060606060604040202020404040867
:1001500002011040804010204080408008020401CD
:10016000804020100201108010204040200000003C
:100170000200090F0000030401000C000000000051
:100180000000000000000000000000005F0A1124D1
:100190001FBECFEFDAE0DEBFCDBF11E0A0E0B1E0DF
:1001A000E6EBF7E102C005900D92AC38B107D9F744
:1001B00022E0ACE8B1E001C01D92A33CB207E1F738
:1001C00010E0C7ECD0E004C02197FE010E94D30BE1
:1001D000C63CD107C9F70E94800A0C94D90B0C9435
:1001E0000000FC0180916602882311F13FB7F8946A
:1001F00082E08093E9002091F200822F90E01816AF
:10020000190614F481E090E0882339F0289844E638
:10021000409365024091F1004083222339F0209100
:10022000F200211103C02BE62093E8003FBF0895A0
:100230008FEF9FEF08952FB7F89483E08093E90044
:100240009091E800892F807295FF04C09091F20090
:1002500080E4891B2FBF089580910D0281110DC08C
:1002600082E08093090284E080930A0210920C02DB
:1002700010920B0281E080930D0289E092E00895D4
:10028000282F30E0F901E359FE4F9491F901E25B28
:10029000FE4F8491215D3E4FF9012491222309F400
:1002A00030C09923E9F091509F30D0F4E92FF0E06D
:1002B000E45AFE4F0C94D30B8A018E016B0182012C
:1002C0008601700170017001910197019B019F01EE
:1002D000A5017001A901909180009F779093800003
:1002E000E22FF0E0EE0FFF1FEF5DFE4FA591B491FE
:1002F0009FB7F894EC91611132C080958E238C9356
:100300009FBF0895909180009F7DE8CF90918000DD
:10031000977FE4CF94B59F7794BDE2CF94B59F7D4E
:10032000FBCF909190009F7790939000D9CF9091C0
:1003300090009F7DF9CF90919000977FF5CF90919D
:10034000C0009F779093C000CBCF9091C0009F7D5D
:10035000F9CF9091C200977F9093C200C1CF8E2BAE
:10036000CECF3FB7F8948091050290910602A091FC
:100370000702B091080226B5A89B05C02F3F19F0CF
:100380000196A11DB11D3FBFBA2FA92F982F882715
:10039000BC01CD01620F711D811D911D42E0660FF0
:1003A000771F881F991F4A95D1F708958F929F92C2
:1003B000AF92BF92CF92DF92EF92FF924B015C011E
:1003C0000E94B1016B017C010E94B1016C197D0991
:1003D0008E099F09683E734081059105A8F321E0CD
:1003E000821A9108A108B10888EEC80E83E0D81ED1
:1003F000E11CF11C81149104A104B10429F7FF90C0
:10040000EF90DF90CF90BF90AF909F908F90089526
:10041000089508954091F2015091F3012091F00167
:100420003091F10142175307B4F49091E8009570B0
:10043000E1F39091E80092FD19C08093F100809162
:10044000F2019091F30101968F739927892B19F48A
:100450008EEF8093E8008091F2019091F301019674
:100460009093F3018093F20181E0089580E0089574
:10047000EF92FF920F931F93CF93DF93F82E192FD4
:10048000E62E042F81E0860F880F0E940A0283E087
:100490000E940A02CF2DD12FEC0EFD2EF11CCE159D
:1004A000DF05B9F007FF13C0FE0184910E940A0224
:1004B000182F80E00E940A02812321968111EFCF3C
:1004C000DF91CF911F910F91FF90EF900895888158
:1004D000EDCF81E0F5CFDF92EF92FF920F931F9364
:1004E000CF93DF93D82E8A01EB017B01E40EF51E3A
:1004F000CE15DF0559F0D7FE12C0FE0184910E948F
:100500000A0221968111F4CF0FEF1FEFC801DF918E
:10051000CF911F910F91FF90EF90DF900895888108
:10052000EECF0F931F93CF93DF931F92CDB7DEB71C
:1005300082E0898342E450E06CEA70E080E80E9447
:100540006B020E942C01DC0112960D911C91011589
:10055000110589F0D801ED91FC910280F381E02D25
:10056000BE016F5F7F4FC801099597FD04C0F80178
:1005700000851185ECCF89810F90DF91CF911F917C
:100580000F910895615030F02091F100FC0120831B
:100590000196F8CF289884E68093650208958F929B
:1005A0009F92AF92BF92CF92DF92EF92FF920F9302
:1005B0001F93CF93DF936C017B018A0180910B0124
:1005C000882309F45CC080916602882309F457C02F
:1005D0008091F60180FF05C08091E00082608093E9
:1005E000E000E801B12C8AEFA82E93E0892E2AE3DF
:1005F000922E209711F4BB20D9F10E941B0181118A
:100600000AC0AA94AA20D9F161E070E080E090E0ED
:100610000E94D601EECF8C171D0611F00CF08C2F26
:100620009FB7F8948092E9002091E80025FD02C070
:100630009FBFDFCF282F30E0C21BD30BF7018150C3
:1006400020F041914093F100FACFE20EF31EBB205F
:1006500021F09092E800B12CEBCF8091E80085FD6D
:10066000E7CF9092E800BB24B394209709F3F3CF2F
:100670005D9884E68093F501101611063CF081E048
:1006800090E0F6019383828310E000E0C801DF91DF
:10069000CF911F910F91FF90EF90DF90CF90BF907F
:1006A000AF909F908F900895CF93DF931F92CDB717
:1006B000DEB76983DC01ED91FC910280F381E02DCE
:1006C00041E050E0BE016F5F7F4F09950F90DF91D1
:1006D000CF91089583E08093E9008091F200882310
:1006E00019F08AE38093E80008950E941B0190E0CE
:1006F0000895CF93DF931F92CDB7DEB7FC018485B9
:10070000958597FD08C02FEF3FEF358724870F9021
:10071000DF91CF910895CE0101960E94F1000197DB
:1007200019F4898190E0F3CF8FEF9FEFF0CF0F9313
:100730001F93CF93DF931F92CDB7DEB78C01FC01DF
:100740008485958597FF0BC0CE0101960E94F1002C
:10075000019771F4898190E0F80195878487F80109
:10076000848595850F90DF91CF911F910F9108950A
:100770008FEF9FEFF1CFFC018485958597FD0BC02E
:100780009FB7F89482E08093E9008091F2009FBFC8
:1007900090E0019608959FB7F89482E08093E90075
:1007A0008091F2009FBF90E008952091CD01260F27
:1007B0003327331F21323105ECF420913B02FC0139
:1007C00090E080E0243069F082E00895A091CD01AE
:1007D0002191AC0143555E4FA40FB52FB11D2C9351
:1007E0000196861798F38091CD01680F6093CD0133
:1007F00080E0089581E0089510923B0281E08093AB
:100800003A021092150261E082E00E94400161E02C
:1008100083E00E944001E9EBF0E080818E7F8083DD
:1008200080818D7F808388E48093B80085E4809305
:10083000BC000895CF93DF9391E09093AC0188239F
:10084000B9F0C091B800D091BA008091BC008A7B09
:100850008093BC0060E082E00E94400160E083E0A1
:100860000E9440010E94FC03D093BA00C093B800DC
:10087000DF91CF910895CF92DF92EF92FF920F9385
:100880001F93CF93DF93D091640281E0D13208F0BF
:100890009CC0C09163020E94B1016B017C018091F8
:1008A0003B0281116CC082E080933B0281E0809327
:1008B0003A028FEF8093390210923802D0933702B8
:1008C000A3E4B2E0E7E1F2E080E0D8138DC010923B
:1008D000160280911602CC0FC82BC093160280918D
:1008E0001502813009F084C0109215020E94B101F6
:1008F0006B017C01809116028093BB0080913D02C8
:1009000090913E02A0913F02B0914002892B8A2B28
:100910008B2BA1F00E94B10100913D0210913E028B
:1009200020913F02309140026C197D098E099F0988
:10093000061717072807390708F442C08091BC0042
:1009400083FDD8CF85EC8093BC000E94B1016B0180
:100950007C0180913B02823009F44CC080913902C5
:100960008F3F09F469C080913902803209F466C072
:1009700080913902803309F463C084E026C08091FD
:100980003D0290913E02A0913F02B0914002892B1E
:100990008A2B8B2B09F483CF0E94B10100913D0279
:1009A00010913E0220913F02309140026C197D0966
:1009B0008E099F09061717072807390708F06FCF18
:1009C00080913C020E941A0485E01092420210922B
:1009D000640210924102DF91CF911F910F91FF901D
:1009E000EF90DF90CF9008959D9191938F5F6DCFA1
:1009F00085EEA9CF80913D0290913E02A0913F02E9
:100A0000B0914002892B8A2B8B2B09F4A2CF0E9434
:100A1000B10100913D0210913E0220913F023091C0
:100A200040026C197D098E099F09061717072807D0
:100A3000390708F08ECFC4CF80E0C7CF82E0C5CFA2
:100A400083E0C3CF0895E091FD018091FC01E81798
:100A500030F4F0E0E457FE4F808190E008958FEF8E
:100A60009FEF08959091FD018091FC012FEF3FEFE2
:100A7000981748F4E92FF0E0E457FE4F208130E06A
:100A80009F5F9093FD01C90108958091FC019091B1
:100A9000FD01891B990B0895CF92DF92EF92FF928F
:100AA0000F931F93CF93DF937C01CB018A01209199
:100AB0004102222389F0EB016B01C40ED51ECC1537
:100AC000DD0569F06991D701ED91FC910190F0810C
:100AD000E02DC7010995F3CF642F0E94D503C8010B
:100AE000DF91CF911F910F91FF90EF90DF90CF900A
:100AF0000895CF93DF931F92CDB7DEB7698320911E
:100B000041022223F9F020916402203258F021E0C2
:100B100030E0FC013383228390E080E00F90DF918E
:100B2000CF91089580914202E82FF0E0ED5BFD4FF8
:100B3000998190838F5F809342028093640281E069
:100B400090E0ECCF61E0CE0101960E94D503F7CF93
:100B500090E080E00895FC0101900020E9F73197D2
:100B6000AF01481B590BBC0187E692E00C94CF0201
:100B70008F929F92AF92BF920F931F93CF93DF9369
:100B8000CDB7DEB7A1970FB6F894DEBF0FBECDBFCD
:100B900019A2423008F44AE08E010F5D1F4F842EE7
:100BA000912CB12CA12CA50194010E94B10BE62F30
:100BB000B901CA01EA30F4F4E05DD801EE938D0189
:100BC000232B242B252B79F790E080E0109719F048
:100BD000CD010E94AB05A1960FB6F894DEBF0FBE03
:100BE000CDBFDF91CF911F910F91BF90AF909F909C
:100BF0008F900895E95CE1CFCF92DF92EF92FF9260
:100C0000CF93DF936B017C016DE287E692E00E9457
:100C10005403EC0166277727CB016C197D098E09F7
:100C20009F094AE00E94B8058C0F9D1FDF91CF916C
:100C3000FF90EF90DF90CF90089585ED8093BC00FA
:100C400080913D0290913E02A0913F02B0914002FE
:100C50000796A11DB11D23E0B695A7959795879599
:100C60002A95D1F72091BC0024FD03C010923B02CD
:100C7000089540913D0250913E0260913F02709173
:100C80004002452B462B472B69F30097A105B10580
:100C900041F02AE22A95F1F700C00197A109B109B4
:100CA000E1CF80913C020C941A041F920F920FB670
:100CB0000F9211242F933F938F939F93AF93BF93E2
:100CC0008091010290910202A0910302B09104026E
:100CD0003091000223E0230F2D3758F50196A11D16
:100CE000B11D209300028093010290930202A09311
:100CF0000302B09304028091050290910602A09134
:100D00000702B09108020196A11DB11D8093050252
:100D100090930602A0930702B0930802BF91AF918F
:100D20009F918F913F912F910F900FBE0F901F9029
:100D3000189526E8230F0296A11DB11DD2CF1F9250
:100D40000F920FB60F9211248F939F938091E10021
:100D50009091E100937F9093E10083FF0FC0109288
:100D6000E90091E09093EB001092EC0092E39093F5
:100D7000ED001092660298E09093F00082FF22C08E
:100D800093E09093E9009091F200992319F09AE38F
:100D90009093E8009091F501992341F09091F5012D
:100DA00091509093F501911101C05D9A9091650267
:100DB000992341F0909165029150909365029111B1
:100DC00001C0289A84FF18C08091E2008E7E816065
:100DD0008093E2008091E1008F7E8093E10080911A
:100DE000F6018E7E80618093F6019F918F910F9026
:100DF0000FBE0F901F90189580FFF7CF8091E200F3
:100E00008E7E80618093E2008091E1008E7E8093EF
:100E1000E1008091F6018E7E8160E5CF1F920F92F6
:100E20000FB60F921124CF92DF92EF92FF920F93A1
:100E30001F932F933F934F935F936F937F938F9362
:100E40009F93AF93BF93EF93FF93CF93DF93CDB770
:100E5000DEB76C97DEBFCDBF1092E9008091E8004D
:100E600083FF25C068E0CE0145960E94C20282EF52
:100E70008093E8008D8987FF39C09091E80090FF4A
:100E8000FCCF982F907609F034C19E894F89588DF8
:100E90002F89F88C911131C0803861F58091F7016C
:100EA0008093F1001092F1008EEF8093E8006C9631
:100EB0000FB6F894DEBF0FBECDBFDF91CF91FF918B
:100EC000EF91BF91AF919F918F917F916F915F91C2
:100ED0004F913F912F911F910F91FF90EF90DF90D5
:100EE000CF900F900FBE0F901F9018959EEF90938C
:100EF000E800C7CF1092F100D5CF913059F481119D
:100F0000D3CF4130510581F68091F7018D7F8093D9
:100F1000F701CACF933049F48111C6CF4130510552
:100F200019F68091F7018260F2CF953041F48091FB
:100F3000E80080FFFCCF20682093E300B5CF963017
:100F400009F0A9C00B8D1C8D22E01092E9001092CF
:100F5000F3011092F201F2122EC01092F1011092E0
:100F6000F0010E9491021F8299E09983FA8291E038
:100F70009E8390EA98879AEF99872091F2013091A9
:100F8000F301275F3F4F3C832B838D831092E90051
:100F90001092F3011092F2011093F1010093F0010D
:100FA00049E050E0BE016F5F7F4F80E00E946B021E
:100FB0000E94910279CF1093F1010093F0010E94F9
:100FC0002C01DC0112960D911C910115110509F4FB
:100FD00051C1D801ED91FC910480F581E02DBE0155
:100FE0006B5E7F4FC8010995009709F03EC1F8017B
:100FF00000851185EACFF3E0FF120EC08F898823A8
:1010000009F440C0823061F440E860E180E191E0A1
:101010000E943802811148CF81E28093EB0047CFD4
:10102000813029F440E86BE084E091E0F1CF833037
:1010300099F70E942C01DC011296ED90FC908E0134
:101040000F5F1F4F6801E114F10479F0D701ED91B2
:10105000FC910680F781E02DB801C7010995080FC2
:10106000111DF701E084F184EECFD8011C92F60146
:1010700001900020E9F73197BF016C197D0940E02C
:10108000C601C6CF6EEE70E0FB01449150E080E8EF
:101090000E946B0209CF973009F4BECF983021F43B
:1010A00081E08093F10000CF993009F0FDCE83708C
:1010B00009F0B2CFEDE0F1E081E031E096E321917B
:1010C000222371F08093E9003093EB00DF01119748
:1010D0002C912093EC009093ED008F5F873079F78F
:1010E0008EE78093EA001092EA008F89809366026F
:1010F000DBCE8B8D9C8D1092E9001092F301109243
:10110000F2019093F1018093F001898D811192C0D9
:101110008E899D89913A49F4813209F07DCF47E06B
:1011200050E064E071E080E0B3CF913209F074CF19
:10113000833269F48F89988DB0E0A0E0809300013C
:1011400090930101A0930201B0930301ADCE8032D0
:1011500069F48091E80082FFFCCF67E084E091E0D1
:101160000E94C2028BEF8093E8009ECE823209F08B
:101170009BCE8F8980930B01EEEFFFE785919491D1
:101180008B3F9C4D51F1E0E0F8E08091040190919B
:101190000501A0910601B0910701803B9440A10593
:1011A000B105F1F480910B0180FD1AC0EE3F8AE099
:1011B000F80789F587E797E791838083809160003E
:1011C0008093F40188E19BE00FB6F894A895809392
:1011D00060000FBE9093600067CEEEEFFAE0D5CFCF
:1011E000808191818737974709F05ECEA8958091DD
:1011F00060008861809360008091F40180936000BA
:10120000EE3F2AE0F20789F08091FE0A9091FF0AF2
:101210009183808349CE808191818737980751F2ED
:101220009093FF0A8093FE0AC5CF1092FF0A109296
:10123000FE0A3ACE0E942C01DC0112960D911C91FF
:101240000115110509F4E8CED801ED91FC9101904A
:10125000F081E02DBE016B5E7F4FC80109958111C1
:1012600023CEF80100851185EBCF181619060CF472
:101270001BCED2CEF1E0FF12BECE62EF70E004CF03
:101280001F920F920FB60F9211242F933F934F93FB
:101290005F936F937F938F939F93AF93BF93EF93DE
:1012A000FF938091B900887F803609F44AC0F0F539
:1012B000883209F4A7C018F5803109F49BC0B8F44E
:1012C000882309F4F9C0883009F494C0FF91EF91A4
:1012D000BF91AF919F918F917F916F915F914F914E
:1012E0003F912F910F900FBE0F901F90189588314E
:1012F00009F488C0803251F78093390214C08034D9
:1013000009F49DC040F48033B9F38833F9F6809333
:10131000390285ECB0C0803509F485C0883509F400
:1013200096C0883499F60E941D06D0CF883909F4FA
:101330008CC038F5883729F050F4883611F08037A2
:1013400029F683E080933B021092EF0157C0883862
:1013500009F47BC0803919F0803809F0B7CF80914B
:10136000EF01803208F071C0E091EF0181E08E0F53
:101370008093EF018091BB00F0E0E153FE4F80834A
:101380003DC0803B39F0E0F4803A09F479C0883AF6
:1013900009F09CCF84E080933B021092CE01109222
:1013A000CD01E091FA01F091FB0109958091CD0109
:1013B00081110FC081E08093CD011092AD0109C071
:1013C000803C09F4A6CF883C09F4A3CF883B09F000
:1013D0007DCFE091CE0181E08E0F8093CE01F0E0D1
:1013E000E355FE4F80818093BB009091CE018091A8
:1013F000CD0129C0809116028093BB0085EC8093BB
:10140000BC0064CF9091380280913702981758F54C
:10141000E091380281E08E0F80933802F0E0E95EBF
:10142000FD4F8081E9CFE091380281E08E0F8093FB
:1014300038028091BB00F0E0E95EFD4F808390911F
:101440003802809137029817C8F285E8D8CFE0912A
:10145000380281E08E0F809338028091BB00F0E06B
:10146000E95EFD4F808380913A0281115CCF81E07B
:101470008093150284EA8093BC0010923B0226CF31
:1014800085EC8093BC0010923B028091EF0180328A
:1014900030F4E091EF01F0E0E153FE4F10826091F3
:1014A000EF0170E0E091F801F091F9018FEC91E02B
:1014B00009951092EF010ACF1092390234CFE7E676
:1014C000F2E01382128288EE93E0A0E0B0E0848321
:1014D0009583A683B78327E131E0318320832FEF03
:1014E0003FEF35872487E7EBF2E013821282848393
:1014F0009583A683B78389E291E0918380830895E1
:10150000789484B5826084BD84B5816084BD85B5DE
:10151000826085BD85B5816085BD80916E008160EA
:1015200080936E0010928100809181008260809390
:101530008100809181008160809381008091800092
:1015400081608093800080919100826080939100FF
:1015500080919100816080939100809190008160E2
:10156000809390008091C10084608093C10080913D
:10157000C10082608093C1008091C100816080932E
:10158000C1008091C30081608093C3008091C0003E
:1015900082608093C0008091C20081608093C2000D
:1015A00080917A00846080937A0080917A008260D2
:1015B00080937A0080917A00816080937A00809194
:1015C0007A00806880937A00109266021092F70188
:1015D0001092F6018091D70081608093D70080EA55
:1015E0008093D80089B5806189BD89B5826089BD45
:1015F00009B400FEFDCF61E070E080E090E00E9461
:10160000D6018091D8008F7C80618093D800809132
:10161000E000807F8093E0008091E1008E7E8093E7
:10162000E1008DE08093E200559A209A1092FD012E
:101630001092FC0110924202109264020E94FC037C
:1016400088E092E09093FB018093FA0189E092E0B8
:101650009093F9018093F8018FEF9FEF90937402BC
:101660008093730287E391E00E94AB058FE691E0DF
:101670000E94AB0500E010E0FF24F39488E0E82E20
:1016800099E0D92E87E692E00E94BB03892B09F4EA
:101690005DC087E692E00E94790390ED980F92304A
:1016A00008F054C0C82F880FDD0BE097D093FF01DE
:1016B000C093FE01F0924102E09263021092420256
:1016C000109264026C2F87EB92E00E9479050E94D1
:1016D0003B0482E791E00E94AB05BE010D2E000C99
:1016E000880B990BD7FF39C00E94FC058FE691E06B
:1016F0000E94AB05F0924102D09263021092420226
:1017000010926402C1E08091FE019091FF01019767
:1017100009F4C0E06C2F87EB92E00E9479050E94EB
:101720003B0489E791E00E94AB056C2F70E090E0EC
:1017300080E04AE00E94B8058FE691E00E94AB0588
:1017400064E670E080E090E00E94D601011511058A
:1017500009F498CF0E94000095CF4AE00E94B80596
:10176000C5CFA1E21A2EAA1BBB1BFD010DC0AA1FEB
:10177000BB1FEE1FFF1FA217B307E407F50720F0FA
:10178000A21BB30BE40BF50B661F771F881F991F75
:101790001A9469F760957095809590959B01AC01BE
:1017A000BD01CF010895EE0FFF1F0590F491E02DCC
:0617B0000994F894FFCF3C
:1017B600FFFFFFFF00E100000000000000C1808184
:1017C600000000000000005403CF0275036A03BB4B
:1017D60003790397030000000079054C05A805224C
:1017E600054505320523054C656F6E6172646F20F1
:1017F6004D61737465722052656164792E20547947
:1018060070652031206F72203020746F20636F6EF8
:1018160074726F6C204D656761204C45442E000D37
:101826000A0053656E743A200053656E74206F7417
:0C18360068657220736C6176653A2000D2
:00000001FF
